:1022FA00064800000000000002460000023F0000FD
:10230A0002500000024E0000014100013C00023D63
:10231A000000023A000002380000024200000244B3
:02232A000000B1
:10168B00D292122A80122A92122AEC122456E4F5D4
:10169B004EF54F122A22E54F25E02448F8A63208D2
:1016AB00A633054FE54F7002054EC39403E54E6418
:1016BB0080948040DEE560B401D1122852EF4E6079
:1016CB00CAE56A6401456970C2AE63AF647C007D94
:1016DB0003121ECEAC06AD07AE61E5627802C333D2
:1016EB00CE33CED8F92DFDEC3EFCE56625E0FFE5CB
:1016FB006533FEED2FF547EC3EF54612001ED3E5A4
:10170B003394B9E532940050F2E568640145677093
:10171B000C1229CAE54745467003021B81122A3F6A
:10172B00122AB6122A3FE547640245467003021897
:10173B00B112001E7F011228A5D3E53394D2E532F6
:10174B00940050ED122A3F122AB612001E12001EF0
:10175B00C3E531942CE530940140EF12001E1200CA
:10176B001EC3E531942CE530940140EF12001E129C
:10177B00001EC3E531942CE530940140EFE4F5599C
:10178B00F55A12000EC3E55A9436E559940040F20F
:10179B00122B08122A3F12000E122A22D3E535947F
:1017AB00F0E534940050EF120E0CE4FF1228A5D391
:1017BB00E53394E6E532940050ED122A3FE5476499
:1017CB000345466008E547640545467009122AA49F
:1017DB00122A3F0218A9122B08122A3F12271F7D2B
:1017EB00017C00121FB68E328F3312271F7D017CB6
:1017FB0000121FB68E328F3312271F7D017C001211
:10180B001FB68E328F3312271F7D017C00121FB63D
:10181B008E328F33120E0CE4FF1228A5D3E53394CE
:10182B00B9E532940050ED122A3F122B08122A3FD1
:10183B00120E0CE4FF1228A5D3E53394B9E53294CC
:10184B000050ED122A3F7F647E00122A04122AA454
:10185B00122A3F1229CA122AA4122A3F12001E7FF3
:10186B00011228A5D3E53394D2E532940050ED1242
:10187B002A3F122AA4122A3F12001E7F011228A50A
:10188B00D3E53394B9E532940050ED122A3FE54786
:10189B00640745466008E54764094546700312290D
:1018AB00CA122AA4805B122A22E4F559F55A1200B7
:1018BB001ED3E55A9423E559940040F27F647E00D1
:1018CB00122A041226B18E348F3512278B8E308F4D
:1018DB003112001E1226B18E348F35D3E53394307E
:1018EB00E532940250EBC3E5359458E5349402404D
:1018FB00E0122A3F7F327E00122A04122AC8021AF3
:10190B00E412001ED3E533949AE532940150F2129F
:10191B002A3F12271F7D017C00121FB68E328F3398
:10192B0012271F7D017C00121FB68E328F331227B8
:10193B001F7D017C00121FB68E328F3312271F7D45
:10194B00017C00121FB68E328F3312001ED3E5338B
:10195B0094BCE532940050F2122A3F122AA4122AA8
:10196B003FE4F53DF53E12001E1226B18E348F3545
:10197B00C3E535942CE5349401500A053EE53E70E1
:10198B0009053D8005E4F53DF53ED3E535942CE5A1
:10199B0034940150D1E53E9403E53D940040C712C9
:1019AB000E0CD3E53394B4E532940050F2122A3F77
:1019BB00122B12E547640645467003021A66E5478B
:1019CB00640945467003021A66E54764054546708F
:1019DB0003021A66120E0CD3E53594F0E53494002D
:1019EB0040197D467C057F467E051227FF122A2271
:1019FB00D3E53594F0E534940050E7D3E53394B454
:101A0B00E532940050CE122A3F021B7B12001ED3EC
:101A1B00E5339426E532940250F212001ED3E533DF
:101A2B0094F4E532940150F212001ED3E53394C2C4
:101A3B00E532940150F212001ED3E53394AEE53239
:101A4B00940150F2122A3FE55F640160051224569F
:101A5B0080F5122B301225420216D4E4F550F551C5
:101A6B00120E0CD3E53594F0E5349400401B7D4603
:101A7B007C057F467E051227FF122A22D3E535947B
:101A8B00F0E534940050E780080551E551700205EC
:101A9B0050D3E5519482E5506480948040C2122A61
:101AAB003F122B12122A2212000EC3E53394F0E5DB
:101ABB003294005019122A227D147C057FA47E06D5
:101ACB001227FFC3E53394F0E532940040E7D3E5EA
:101ADB003194C8E530940050CB12001ED3E53394FB
:101AEB00DCE532940050F27F327E00122A04122A77
:101AFB003F122AA412001E7F011228A5D3E53394AE
:101B0B00D2E532940050ED1229CA122B30E4F5596C
:101B1B00F55A120E0CE4FF1228A5C3E53594F0E537
:101B2B00349400500BC3E55A9418E559940040E2E5
:101B3B00120E0CE4FF1228A5D3E53394C8E53294BA
:101B4B000050ED122A3F122B12120E0CD3E53394D8
:101B5B00E6E532940050F2122A3F122B08120E0CBB
:101B6B00E4FF1228A5D3E53394B4E532940050ED8D
:0C1B7B00122AFA021A17122B30021A1755
:0429CA007FDC7E052B
:1029CE008E6F8F70C3E5409570E56F6480F8E53FBC
:1029DE006480985019122A3FC280122A3F0540E5A2
:1029EE00407002053F7F017E00122A0480D6D280FD
:0629FE00E4F53FF5402264
:102A220012278B8E308F3112271F7D017C00121FDF
:0D2A3200B68E328F331226B18E348F3522CE
:10285200E549254BFFE548354AFE7C007D02121E04
:10286200E0E54D2405FDE4354CFCD3EF9DEC64809E
:10287200F8EE648098501CE54D24FBFDE54C34FFD6
:10288200FCC3EF9DEC6480F8EE64809840057E0006
:102892007F0122E4F548F549F54AF54BF54CF54D33
:0328A200FEFF2214
:102542001228F67C007D0A121EE08D41E541B40A94
:1025520000400302260C90255FF828287302257D8F
:102562000225FA02258A02259602259D0225A40249
:1025720025B70225C90225D60225EA7567007568C6
:1025820001E4F565F5668027E4F567F568F565759C
:102592006601801BE4F567F5688021E4F567F5685C
:1025A200802C756700756801756500756601E4F534
:1025B20063F564802E756700756801E4F565F5665C
:1025C200F563756401801C756700756801E4F56543
:1025D200F566801EE4F567F568F565756601F563D5
:1025E200756401F561F56222E4F567F568F56575D4
:1025F2006601F563F564800EE4F567F568F565F547
:1026020066F563756401F56180157567007568018B
:102612007565007566017563007564017561007505
:0326220062012230
:1028A500EF146028047049D3E53594F0E5349400BD
:1028B500403E7D467C057F467E051227FF122A2273
:1028C500D3E53594F0E534940050E722D3E531940F
:1028D500F0E530940040197D727C067F727E061209
:1028E50027FF122A22D3E53194F0E530940050E712
:0128F50022C0
:10232C00015B01015801015C0502590000025405D2
:0D233C003702564263025D053702524263CC
:102A5800AD07AC06C3E49DFDE49CF58DAF05EFF52D
:042A68008BD28E225D
:102A6C00AD07AC06C3E49DFDE49CF58CAF05EFF51A
:042A7C008AD28C224C
:03000B0002294384
:10294300C0E0C0D075D000C004C005C006C007C237
:102953008CE55B24FE6019047022D291755B02AF93
:1029630055AE54122A6C055AE55A70100559800C5D
:10297300C291755B01AF57AE56122A6CD007D006D1
:09298300D005D004D0D0D0E03220
:03001B0002298C2B
:10298C00C0E0C0D075D000C004C005C006C007C2EE
:10299C008EE55824FE600E047017D293755802AF62
:1029AC005EAE5D8009C293755801AF53AE52122AC8
:0E29BC0058D007D006D005D004D0D0D0E032DD
:102A8000438901758CFF758AF6C28DD28CD2A9D28A
:022A9000AF2273
:102A9200438910758DFF758BECC28FD28ED2ABD26B
:022AA200AF2261
:0E2AEC00E4F5C8F5C9F5CDF5CCC2CAC2CF22BB
:10271F00E4FFFEFDFCF5CDF5CCD2A20000000000D9
:10272F00000000000000000000000000000000C2D8
:10273F00A230A3FDD2CA20CF0320A3FAC2CA20A37E
:10274F002DD2A3AFCDEFFEADCCEDFFAC06E4121E44
:10275F00147B7B7A14792E783E121C7F121E4DAC9F
:10276F0006AD07C3ED94DEEC9403400B800530CF2C
:0B277F0006C2CF7C037DDEAE04AF0578
:01278A00222C
:1026B100E4FFFEFDFCC2CFF5CDF5CCD2A6000000B3
:1026C1000000000000000000000000000000000009
:1026D10000C2A630A7FDD2CA20CF0320A7FAC2CAE2
:1026E10020A72DD2A7AFCDEFFEADCCEDFFAC06E418
:1026F100121E147B7B7A14792E783E121C7F121ED7
:102701004DAC06AD07C3ED94DEEC9403400B8005A0
:0D27110030CF06C2CF7C037DDEAE04AF05E5
:01271E002298
:10278B00E4FFFEFDFCF5CDF5CCD2A400000000006B
:10279B00000000000000000000000000000000C26C
:1027AB00A430A5FDD2CA20CF0320A5FAC2CA20A50A
:1027BB002DD2A5AFCDEFFEADCCEDFFAC06E4121ED6
:1027CB00147B7B7A14792E783E121C7F121E4DAC33
:1027DB0006AD07C3ED94DEEC9403400B800530CFC0
:0B27EB0006C2CF7C037DDEAE04AF050C
:0127F60022C0
:102A0400D3EF9400EE940040147D707C00ED1D70B3
:0D2A1400011CED4C70F7EF1F70E61E80E313
:012A21002292
:10234900016000086100000000000000000269004F
:0423590000015F0020
:102456002090107F057E00122A04209003756001EB
:102466003090FD20872B7F327E00122A043087FDB4
:102476007F327E00122A04E562640145617006F52A
:1024860061F5628006756100756201756900756A9D
:102496000120862B7F327E00122A043086FD7F3291
:1024A6007E00122A04E564640145637006F563F54F
:1024B600648006756300756401756900756A01209C
:1024C600852B7F327E00122A043085FD7F327E0006
:1024D600122A04E566640145657006F565F56680B1
:1024E60006756500756601756900756A0120842B9D
:1024F6007F327E00122A043084FD7F327E00122A4B
:1025060004E568640145677006F567F56880067539
:102516006700756801756900756A0120831D7F3241
:102526007E00122A043083FD7F327E00122A04E5E3
:0C2536005FB40104E4F55F22755F012230
:10235D00023600000234000002300000023200009C
:10236D0002080000020A000044007800000000444A
:10237D00003C0000000044006C0000000044000020
:10238D0000000000440068000000004400640000EC
:10239D00000044008040A6666644007C40A000001A
:1023AD0044000C402000004400044013333344002B
:1023BD00084100000044001440400000440010415A
:1023CD00F5999A4400744079999A4400704220001E
:1023DD000020240C000000000000000000000000A0
:1023ED003C9374BC000000003D5E00D20000000074
:1023FD00000000000000000060240040000000000C
:10240D0000000000000000003A83126F0000000081
:10241D003C449BA6000000000000000000000000EE
:10242D006024001800000000000000000000000003
:10243D003A83126F000000003C449BA60000000090
:08244D00000000000000000087
:101FB6008E6F8F708C718D72E57160030222B3E5AE
:101FC6007224FE70030220A51470030221A62402C7
:101FD60060030222B3852B2F852A2E85292D85287D
:101FE6002CAF1BAE1AAD19AC18AB13AA12A911A8C7
:101FF60010121B8E8F0F8E0E8D0D8C0CAF1BAE1A12
:10200600AD19AC18AB0FAA0EA90DA80C121B8E8F1A
:102016001F8E1E8D1D8C1CAC6FAD70EC121E14AB8A
:102026002FAA2EA92DA82C121B8AAB1FAA1EA91DEA
:10203600A81C121C7FC004C005C006C007AF2FAE87
:102046002EAD2DAC2C121E4DAD07AC06EC121E1497
:10205600D003D002D001D000121B8E8F278E268D82
:10206600258C24AB1FAA1EA91DA81CE4FFFE7D809B
:102076007C3F121B8AAB0FAA0EA90DA80C121C7F5F
:102086008F178E168D158C148F138E128D118C1042
:1020960085272B85262A8525298524280222B39083
:1020A600005CE0FCA3E0FDA3E0FEA3E0FFA3121F9B
:1020B6002490004CE0FCA3E0FDA3E0FEA3E0FF902B
:1020C6000044E0F8A3E0F9A3E0FAA3E0FB121B8EBC
:1020D600900040121F2490004CE0FCA3E0FDA3E01A
:1020E600FEA3E0FF900040E0F8A3E0F9A3E0FAA326
:1020F600E0FB121B8E900050121F24AC6FAD70ECEB
:10210600121E14900060E0F8A3E0F9A3E0FAA3E041
:10211600FB121B8A900050E0F8A3E0F9A3E0FAA3B3
:10212600E0FB121C7FC004C005C006C0079000601B
:10213600E0FCA3E0FDA3E0FEA3E0FF121E4DAD0709
:10214600AC06EC121E14D003D002D001D000121B34
:102156008E900058121F24900050E0F8A3E0F9A3D7
:10216600E0FAA3E0FBE4FFFE7D807C3F121B8A9031
:102176000040E0F8A3E0F9A3E0FAA3E0FB121C7F1D
:10218600900048121F24900048E0FCA3E0FDA3E065
:10219600FEA3E0FF900044121F249000580222A4E0
:1021A600900034E0FCA3E0FDA3E0FEA3E0FFA31251
:1021B6001F24900024E0FCA3E0FDA3E0FEA3E0FFC3
:1021C60090001CE0F8A3E0F9A3E0FAA3E0FB121BE1
:1021D6008E900018121F24900024E0FCA3E0FDA3BB
:1021E600E0FEA3E0FF900018E0F8A3E0F9A3E0FA10
:1021F600A3E0FB121B8E900028121F24AC6FAD705B
:10220600EC121E14900038E0F8A3E0F9A3E0FAA35C
:10221600E0FB121B8A900028E0F8A3E0F9A3E0FA9D
:10222600A3E0FB121C7FC004C005C006C0079000D7
:1022360038E0FCA3E0FDA3E0FEA3E0FF121E4DADD7
:1022460007AC06EC121E14D003D002D001D0001247
:102256001B8E900030121F24900028E0F8A3E0F9AE
:10226600A3E0FAA3E0FBE4FFFE7D807C3F121B8A1D
:10227600900018E0F8A3E0F9A3E0FAA3E0FB121C33
:102286007F900020121F24900020E0FCA3E0FDA315
:10229600E0FEA3E0FF90001C121F24900030E0FC3B
:1022A600A3E0FDA3E0FEA3E0FFA3121F24E57264F2
:1022B600014571700AAF2BAE2AAD29AC28802EE5F8
:1022C6007264024571701090005CE0FCA3E0FDA30F
:1022D600E0FEA3E0FF8016E572640345717011907D
:1022E6000034E0FCA3E0FDA3E0FEA3E0FF021E4DE8
:0422F600E4FEFF22E1
:0827F7007D727F727C067E06F4
:1027FF008E6F8F70AE04AF05E4121E147B0A7AD76A
:10280F007963783F121C7F121E4D8E5D8F5EC374ED
:10281F009A955EF5537447955DF552AC6FAD70E4C4
:10282F00121E147B0A7AD77963783F121C7F121E0F
:10283F004D8E548F55C3749A9555F55774479554CB
:03284F00F5562219
:10001E0085303685313712271F7D017C00121FB6C1
:10002E008E328F3312278B8E308F31D3E53194A4DD
:10003E00E53094014017750805750914750A0675A3
:10004E000BA4AD09AC08AF0BAE0A020E08D3E53116
:10005E009496E530940050030206C1E531246AFD02
:10006E00E53034FFFCE4121E14900080E0F8A3E0AB
:10007E00F9A3E0FAA3E0FB121C7F900068121F2484
:10008E00E531246AFFE53034FFFED3EF9432EE946F
:10009E000050030201D1900074E0FCA3E0FDA3E048
:1000AE00FEA3E0FF900080121F24900070E0FCA3DE
:1000BE00E0FDA3E0FEA3E0FF90007C121F24E531DB
:1000CE00246AFDE53034FFFCE4121E14900080E03B
:1000DE00F8A3E0F9A3E0FAA3E0FB121C7F900068FE
:1000EE00121F24C3E5379531FDE5369530FCE41239
:1000FE001E1490007CE0F8A3E0F9A3E0FAA3E0FB65
:10010E00121C7F900064121F24C3E5379531FFE562
:10011E00369530FED3EF9400EE940040537F007E70
:10012E00807DA27C44900068E0F8A3E0F9A3E0FA99
:10013E00A3E0FB121B8E900064E0F8A3E0F9A3E0AD
:10014E00FAA3E0FB121B8A121E4D8E088F09C3E51F
:10015E000994DCE508940540067508057509AA752D
:10016E000A06750BA4AC08AD097FA47E06020E0824
:10017E007F007E807DA27C44900068E0F8A3E0F9C9
:10018E00A3E0FAA3E0FB121B8E900064E0F8A3E05C
:10019E00F9A3E0FAA3E0FB121B8A121E4D8E088F04
:1001AE0009C3E50994DCE508940540067508057554
:1001BE0009AA750A06750BA4AC08AD097FA47E06C4
:1001CE00020E08E531246AFDE53034FFFCE4121E10
:1001DE0014900080E0F8A3E0F9A3E0FAA3E0FB128C
:1001EE001C7F900068121F24E531246AFFE530342D
:1001FE00FFFED3EF941EEE94005003020385900091
:10020E0014E0FCA3E0FDA3E0FEA3E0FF900080124B
:10021E001F24900010E0FCA3E0FDA3E0FEA3E0FF8E
:10022E0090007C121F24E531246AFDE53034FFFC7A
:10023E00E4121E14900080E0F8A3E0F9A3E0FAA304
:10024E00E0FB121C7F900068121F24C3E537953126
:10025E00FDE5369530FCE4121E1490007CE0F8A308
:10026E00E0F9A3E0FAA3E0FB121C7F900064121FDA
:10027E0024C3E5379531FFE5369530FED3EF940074
:10028E00EE940050030203327466FFFEFD7C3F9035
:10029E000068E0F8A3E0F9A3E0FAA3E0FB121C7FEC
:1002AE00900064E0F8A3E0F9A3E0FAA3E0FB121DCE
:1002BE0085401E7466FFFEFD7C3F900068E0F8A34B
:1002CE00E0F9A3E0FAA3E0FB121C7F900064121F7A
:1002DE00247F007E807DA27C44900068E0F8A3E03D
:1002EE00F9A3E0FAA3E0FB121B8E900064E0F8A3E2
:1002FE00E0F9A3E0FAA3E0FB121B8A121E4D8E0852
:10030E008F09C3E50994DCE50894054006750805D8
:10031E007509AA750A06750BA4AC08AD097FA47EF3
:10032E0006020E087F007E807DA27C44900068E06D
:10033E00F8A3E0F9A3E0FAA3E0FB121B8E90006491
:10034E00E0F8A3E0F9A3E0FAA3E0FB121B8A121E69
:10035E004D8E088F09C3E50994DCE5089405400627
:10036E007508057509AA750A06750BA4AC08AD09C2
:10037E007FA47E06020E0890000CE0FCA3E0FDA315
:10038E00E0FEA3E0FF900080121F24900008E0FC26
:10039E00A3E0FDA3E0FEA3E0FF90007C121F24E586
:1003AE0031246AFDE53034FFFCE4121E1490008007
:1003BE00E0F8A3E0F9A3E0FAA3E0FB121C7F9000A3
:1003CE0068121F24C3E5379531FDE5369530FCE400
:1003DE00121E1490007CE0F8A3E0F9A3E0FAA3E06B
:1003EE00FB121C7F900064121F24E531246AFDE588
:1003FE003034FFFCE4121E1490003C121F249000B7
:10040E003CE0FCA3E0FDA3E0FEA3E0FFE4FBFA79F1
:10041E00707841121D855003020512E4FFFE7DA087
:10042E007C40900078E0F8A3E0F9A3E0FAA3E0FBAB
:10043E00121D8560054003020512E4FFFE7D807CDF
:10044E0040900078E0F8A3E0F9A3E0FAA3E0FB12F5
:10045E001D85503C900000E0F8A3E0F9A3E0FAA35C
:10046E00E0FBC000C001C002C0037F9A7E997D9957
:10047E007C3E90003CE0F8A3E0F9A3E0FAA3E0FB99
:10048E00121C7FD003D002D001D000121B8E802907
:10049E0090003CE0FCA3E0FDA3E0FEA3E0FF900093
:1004AE0000E0F8A3E0F9A3E0FAA3E0FB121B8E74C0
:1004BE0033FBFAF9783F121C7F900000121F249034
:1004CE000004E0FCA3E0FDA3E0FEA3E0FF9000002B
:1004DE00E0F8A3E0F9A3E0FAA3E0FB121C7F900082
:1004EE006C121F24900078E0FCA3E0FDA3E0FEA3B5
:1004FE00E0FFE4FBFA7980783F121B8E90007812B1
:10050E001F24805490003CE0FCA3E0FDA3E0FEA37A
:10051E00E0FFE4FBFA79707841121D85401CE4FF80
:10052E00FE7DA07C40900078E0F8A3E0F9A3E0FA0D
:10053E00A3E0FB121D856020401E900000121F30AC
:10054E000000000090006C121F30000000009000B0
:10055E0078121F3000000000C3E5379531FFE536F5
:10056E009530FED3EF9400EE940050030205FC7F0D
:10057E009A7E997D997C3E900064E0F8A3E0F9A301
:10058E00E0FAA3E0FB121C7FC004C005C006C00742
:10059E007F007E807DD47C44900068E0F8A3E0F973
:1005AE00A3E0FAA3E0FB121B8ED003D002D001D041
:1005BE0000121B8A90006CE0F8A3E0F9A3E0FAA306
:1005CE00E0FB121B8E121E4D8E0A8F0BD3E50B9481
:1005DE00DCE50A94055006750A06750B0E750805BE
:1005EE00750914AE0AAF0B7D147C05020E08C3E527
:1005FE00379531E5369530C3940050647F007E8088
:10060E007DA27C44900068E0F8A3E0F9A3E0FAA391
:10061E00E0FB121B8E900064E0F8A3E0F9A3E0FA71
:10062E00A3E0FB121B8A90006CE0F8A3E0F9A3E0B4
:10063E00FAA3E0FB121B8E121E4D8E088F09C3E526
:10064E000994DCE508940540067508057509AA7538
:10065E000A06750BA4AC08AD097FA47E06020E082F
:10066E007F007E807DA27C44900068E0F8A3E0F9D4
:10067E00A3E0FAA3E0FB121B8E90006CE0F8A3E05F
:10068E00F9A3E0FAA3E0FB121B8E121E4D8E088F0B
:10069E0009C3E50994DCE50894054006750805755F
:1006AE0009AA750A06750BA4AC08AD097FA47E06CF
:1006BE00020E08C3E5319496E53094004003020D16
:1006CE00F8C374969531FDE49530FCE4121E149037
:1006DE000080E0F8A3E0F9A3E0FAA3E0FB121C7F90
:1006EE00900068121F24C374969531FFE49530FE76
:1006FE00D3EF9432EE940050030208C3900074E0DE
:10070E00FCA3E0FDA3E0FEA3E0FF900080121F24F7
:10071E00900070E0FCA3E0FDA3E0FEA3E0FF9000DC
:10072E007C121F24C374969531FDE49530FCE412BF
:10073E001E14900080E0F8A3E0F9A3E0FAA3E0FB1A
:10074E00121C7F900068121F24C3E5379531FDE51A
:10075E00369530FCE4121E1490007CE0F8A3E0F90C
:10076E00A3E0FAA3E0FB121C7F900064121F24C3C7
:10077E00E5379531FFE5369530FED3EF9400EE94D4
:10078E0000407B90000CE0FCA3E0FDA3E0FEA3E0A4
:10079E00FF900080121F24900008E0FCA3E0FDA350
:1007AE00E0FEA3E0FF90007C121F24900068E0F8AA
:1007BE00A3E0F9A3E0FAA3E0FB7F007E807DD47C6A
:1007CE0044121B8A900064E0F8A3E0F9A3E0FAA3B8
:1007DE00E0FB121B8A121E4D8E0A8F0BD3E50B9473
:1007EE00DCE50A94055006750A06750B0E750805AC
:1007FE00750914AE0AAF0B7D147C05020E087466E3
:10080E00FFFEFD7C3F900068E0F8A3E0F9A3E0FA5C
:10081E00A3E0FB121C7FC004C005C006C0079000F9
:10082E0064E0FCA3E0FDA3E0FEA3E0FF121DFEA822
:10083E0004A905AA06AB07D007D006D005D004122E
:10084E001D85401E7466FFFEFD7CBF900068E0F8BB
:10085E00A3E0F9A3E0FAA3E0FB121C7F9000641260
:10086E001F24900068E0F8A3E0F9A3E0FAA3E0FBF0
:10087E007F007E807DD47C44121B8A900064E0F859
:10088E00A3E0F9A3E0FAA3E0FB121B8A121E4D8E21
:10089E000A8F0BD3E50B94DCE50A94055006750A16
:1008AE0006750B0E750805750914AE0AAF0B7D148F
:1008BE007C05020E08C374969531FFE49530FED385
:1008CE00EF941EEE94005003020A92900014E0FC86
:1008DE00A3E0FDA3E0FEA3E0FF900080121F249092
:1008EE000010E0FCA3E0FDA3E0FEA3E0FF90007C7F
:1008FE00121F24C374969531FDE49530FCE4121E4C
:10090E0014900080E0F8A3E0F9A3E0FAA3E0FB1254
:10091E001C7F900068121F24C3E5379531FDE53624
:10092E009530FCE4121E1490007CE0F8A3E0F9A3CD
:10093E00E0FAA3E0FB121C7F900064121F24C3E5B3
:10094E00379531FFE5369530FED3EF9400EE9400E7
:10095E00407B90000CE0FCA3E0FDA3E0FEA3E0FFD3
:10096E00900080121F24900008E0FCA3E0FDA3E09D
:10097E00FEA3E0FF90007C121F24900068E0F8A315
:10098E00E0F9A3E0FAA3E0FB7F007E807DD47C44F7
:10099E00121B8A900064E0F8A3E0F9A3E0FAA3E04A
:1009AE00FB121B8A121E4D8E0A8F0BD3E50B94DCA5
:1009BE00E50A94055006750A06750B0E7508057541
:1009CE000914AE0AAF0B7D147C05020E087466FF87
:1009DE00FEFD7C3F900068E0F8A3E0F9A3E0FAA3E7
:1009EE00E0FB121C7FC004C005C006C00790006467
:1009FE00E0FCA3E0FDA3E0FEA3E0FF121DFEA804B1
:100A0E00A905AA06AB07D007D006D005D004121D43
:100A1E0085401E7466FFFEFD7CBF900068E0F8A363
:100A2E00E0F9A3E0FAA3E0FB121C7F900064121F12
:100A3E0024900068E0F8A3E0F9A3E0FAA3E0FB7FBE
:100A4E00007E807DD47C44121B8A900064E0F8A363
:100A5E00E0F9A3E0FAA3E0FB121B8A121E4D8E0AE8
:100A6E008F0BD3E50B94DCE50A94055006750A0648
:100A7E00750B0E750805750914AE0AAF0B7D147C47
:100A8E0005020E0890000CE0FCA3E0FDA3E0FEA31F
:100A9E00E0FF900080121F24900008E0FCA3E0FD10
:100AAE00A3E0FEA3E0FF90007C121F24C374969572
:100ABE0031FDE49530FCE4121E14900080E0F8A3A2
:100ACE00E0F9A3E0FAA3E0FB121C7F900068121F6E
:100ADE0024C3E5379531FDE5369530FCE4121E143E
:100AEE0090007CE0F8A3E0F9A3E0FAA3E0FB121C6F
:100AFE007F900064121F24C374969531FDE49530E7
:100B0E00FCE4121E1490003C121F2490003CE0FCEA
:100B1E00A3E0FDA3E0FEA3E0FFE4FBFA79707841C9
:100B2E00121D855003020C20E4FFFE7DA07C409038
:100B3E000078E0F8A3E0F9A3E0FAA3E0FB121D852C
:100B4E0060054003020C20E4FFFE7D407C409000D7
:100B5E0078E0F8A3E0F9A3E0FAA3E0FB121D8550BC
:100B6E003C900000E0F8A3E0F9A3E0FAA3E0FBC09C
:100B7E0000C001C002C0037F9A7E997D997C3E9091
:100B8E00003CE0F8A3E0F9A3E0FAA3E0FB121C7F1F
:100B9E00D003D002D001D000121B8E802A90003CD0
:100BAE00E0FCA3E0FDA3E0FEA3E0FF900000E0F870
:100BBE00A3E0F9A3E0FAA3E0FB121B8E7B9A7A99CD
:100BCE007919783F121C7F900000121F24900004A8
:100BDE00E0FCA3E0FDA3E0FEA3E0FF900000E0F840
:100BEE00A3E0F9A3E0FAA3E0FB121C7F90006C12C5
:100BFE001F24900078E0FCA3E0FDA3E0FEA3E0FF3D
:100C0E00E4FBFA7980783F121B8E900078121F2435
:100C1E00805490003CE0FCA3E0FDA3E0FEA3E0FFC7
:100C2E00E4FBFA79707841121D85401CE4FFFE7DCD
:100C3E00A07C40900078E0F8A3E0F9A3E0FAA3E0EE
:100C4E00FB121D856020401E900000121F30000018
:100C5E00000090006C121F3000000000900078120F
:100C6E001F3000000000C3E5379531FFE5369530A3
:100C7E00FED3EF9400EE94005003020D1790000C7B
:100C8E00E0FCA3E0FDA3E0FEA3E0FF900080121FB6
:100C9E0024900008E0FCA3E0FDA3E0FEA3E0FF909B
:100CAE00007C121F24900068E0F8A3E0F9A3E0FA9C
:100CBE00A3E0FB7F007E807DD47C44121B8A9000D3
:100CCE0064E0F8A3E0F9A3E0FAA3E0FB121B8A901C
:100CDE00006CE0F8A3E0F9A3E0FAA3E0FB121B8A94
:100CEE00121E4D8E0A8F0BD3E50B94DCE50A94058C
:100CFE005006750A06750B0E750805750914AE0AB1
:100D0E00AF0B7D147C05020E08C3E5379531E53631
:100D1E009530C394004003020DA67F9A7E997D996B
:100D2E007C3E900064E0F8A3E0F9A3E0FAA3E0FBB8
:100D3E00121C7FC004C005C006C007900068E0F812
:100D4E00A3E0F9A3E0FAA3E0FB7F007E807DA27C06
:100D5E0044121B8AD003D002D001D000121B8A90FD
:100D6E00006CE0F8A3E0F9A3E0FAA3E0FB121B8A03
:100D7E00121E4D8E088F09C3E50994DCE508940513
:100D8E0040067508057509AA750A06750BA4AC0808
:100D9E00AD097FA47E068062900068E0F8A3E0F9BA
:100DAE00A3E0FAA3E0FB7F007E807DD47C44121B7F
:100DBE008A90006CE0F8A3E0F9A3E0FAA3E0FB123E
:100DCE001B8A121E4D8E0A8F0BD3E50B94DCE50A9F
:100DDE0094055006750A06750B0E750805750914EF
:100DEE00AE0AAF0B7D147C058010E531649645305C
:0E0DFE00700B7D147C057FA47E061227FF2259
:102A3F00755405755537755642755763755D057530
:092A4F005E377552427553632293
:0B000E007D147C057FA47E060227FF06
:102AA4007D467C057F467E051227FF7FB87E0102A6
:022AB4002A04F2
:102AB6007D467C057F467E051227FF7F907E0102BC
:022AC6002A04E0
:102AC8007D787C057F787E051227FF7F687E01026E
:022AD8002A04CE
:0E2AFA007D407F401227FB7F407E01022A04B0
:102ADA007D467C057F467E051227FF7FF47E010234
:022AEA002A04BC
:0A2B08001227F77FA47E01022A04C1
:0A2B12001227F77F907E01022A04CB
:0A2B1C001227F77FC27E01022A048F
:0A2B26001227F77FE07E01022A0467
:0A2B30001227F77F207E03022A041B
:100E0C0085343685353712271F7D017C00121FB6BD
:100E1C008E328F331226B18E348F35D3E53594A4B0
:100E2C00E5349401401A1226B18E348F35750805BD
:100E3C00750914750A06750BA4AD09AC080210BC33
:100E4C00D3E53594A0E5349400400302125BC374DF
:100E5C00A09535FDE49534FCE4121E14900080E05E
:100E6C00F8A3E0F9A3E0FAA3E0FB121C7F90006862
:100E7C00121F24C374A09535FFE49534FED3EF9470
:100E8C0032EE94005003020F2A900074E0FCA3E0B1
:100E9C00FDA3E0FEA3E0FF900080121F24900070E1
:100EAC00E0FCA3E0FDA3E0FEA3E0FF90007C121F9A
:100EBC0024900064121F3000000000C374A095350C
:100ECC00FDE49534FCE4121E14900080E0F8A3E0DD
:100EDC00F9A3E0FAA3E0FB121C7F900068121F2418
:100EEC007F007E807DA27C44900068E0F8A3E0F94E
:100EFC00A3E0FAA3E0FB121B8E121E4D8E088F0985
:100F0C00C3E50994DCE508940540067508057509E8
:100F1C00AA750A06750BA4AC08AD090210BCC37403
:100F2C00A09535FFE49534FED3EF941EEE9400505B
:100F3C00030210C3900014E0FCA3E0FDA3E0FEA3A9
:100F4C00E0FF900080121F24900010E0FCA3E0FD55
:100F5C00A3E0FEA3E0FF90007C121F24C374A095B5
:100F6C0035FDE49534FCE4121E14900080E0F8A3E7
:100F7C00E0F9A3E0FAA3E0FB121C7F900068121FBB
:100F8C0024C3E5379535FDE5369534FCE4121E1483
:100F9C0090007CE0F8A3E0F9A3E0FAA3E0FB121CBC
:100FAC007F900064121F24C3E5379535FFE5369515
:100FBC0034FED3EF9400EE940040457F007E807D9C
:100FCC00A27C44900068E0F8A3E0F9A3E0FAA3E067
:100FDC00FB121B8E900064E0F8A3E0F9A3E0FAA3E7
:100FEC00E0FB121B8E121E4D8E088F09C3E509946F
:100FFC00DCE508940540067508057509AA02118CF4
:10100C007466FFFEFD7C3F900068E0F8A3E0F9A356
:10101C00E0FAA3E0FB121C7FC004C005C006C007A9
:10102C00900064E0FCA3E0FDA3E0FEA3E0FF121D32
:10103C00FEA804A905AA06AB07D007D006D005D098
:10104C0004121D85401E7466FFFEFD7CBF90006877
:10105C00E0F8A3E0F9A3E0FAA3E0FB121C7F9000F8
:10106C0064121F247F007E807DA27C44900068E087
:10107C00F8A3E0F9A3E0FAA3E0FB121B8E90006446
:10108C00E0F8A3E0F9A3E0FAA3E0FB121B8E121E1A
:10109C004D8E088F09C3E50994DCE50894054006DC
:1010AC007508057509AA750A06750BA4AC08AD0977
:1010BC00AF0BAE0A02168790000CE0FCA3E0FDA378
:1010CC00E0FEA3E0FF900080121F24900008E0FCDB
:1010DC00A3E0FDA3E0FEA3E0FF90007C121F24C35D
:1010EC0074A09535FDE49534FCE4121E1490008038
:1010FC00E0F8A3E0F9A3E0FAA3E0FB121C7F900058
:10110C0068121F24C3E5379535FDE5369534FCE4AC
:10111C00121E1490007CE0F8A3E0F9A3E0FAA3E01F
:10112C00FB121C7F900064121F24C3E5379535FF1A
:10113C00E5369534FED3EF9400EE940040537F00D7
:10114C007E807DA27C44900068E0F8A3E0F9A3E0E7
:10115C00FAA3E0FB121B8E900064E0F8A3E0F9A365
:10116C00E0FAA3E0FB121B8E121E4D8E088F09C3F2
:10117C00E50994DCE508940540067508057509AA8F
:10118C00750A06750BA4AC08AD097FA47E06021681
:10119C0087C3E5379535E5369534C39400506E7F9B
:1011AC00007E807DD47C44900068E0F8A3E0F9A335
:1011BC00E0FAA3E0FB121B8EC004C005C006C007FA
:1011CC007F9A7E997D197C3F900064E0F8A3E0F94A
:1011DC00A3E0FAA3E0FB121C7FD003D002D001D015
:1011EC0000121B8E121E4D8E0A8F0BD3E50B94DC56
:1011FC00E50A94055006750A06750B0E75080575FB
:10120C000914AE0AAF0B7D147C050216877F007E95
:10121C00807DA27C44900068E0F8A3E0F9A3E0FA9A
:10122C00A3E0FB121B8E121E4D8E088F09C3E5091D
:10123C0094DCE508940540067508057509AA750A3D
:10124C0006750BA4AC08AD097FA47E06021687E5D3
:10125C00352460FDE53434FFFCE4121E149000804C
:10126C00E0F8A3E0F9A3E0FAA3E0FB121C7F9000E6
:10127C0068121F24E5352460FFE53434FFFED3EFFC
:10128C009432EE9400500302132F900074E0FCA3F0
:10129C00E0FDA3E0FEA3E0FF900080121F2490006D
:1012AC0070E0FCA3E0FDA3E0FEA3E0FF90007C1245
:1012BC001F24E5352460FDE53434FFFCE4121E14D4
:1012CC00900080E0F8A3E0F9A3E0FAA3E0FB121C85
:1012DC007F900068121F24900064121F30000000E1
:1012EC0000900068E0F8A3E0F9A3E0FAA3E0FB7F2C
:1012FC00007E807DD47C44121B8A121E4D8E0A8F78
:10130C000BD3E50B94DCE50A94055006750A0675BB
:10131C000B0E750805750914AE0AAF0B7D147C0510
:10132C00021687E5352460FFE53434FFFED3EF94D5
:10133C001EEE940050030214D9900014E0FCA3E0BC
:10134C00FDA3E0FEA3E0FF900080121F249000108C
:10135C00E0FCA3E0FDA3E0FEA3E0FF90007C121FE5
:10136C0024E5352460FDE53434FFFCE4121E1490B2
:10137C000080E0F8A3E0F9A3E0FAA3E0FB121C7FE5
:10138C00900068121F24C3E5379535FDE53695347A
:10139C00FCE4121E1490007CE0F8A3E0F9A3E0FA40
:1013AC00A3E0FB121C7F900064121F24C3E5379549
:1013BC0035FFE5369534FED3EF9400EE94005003E0
:1013CC0002146B7466FFFEFD7C3F900068E0F8A38E
:1013DC00E0F9A3E0FAA3E0FB121C7F900064E0F8B4
:1013EC00A3E0F9A3E0FAA3E0FB121D85401E74668E
:1013FC00FFFEFD7C3F900068E0F8A3E0F9A3E0FA63
:10140C00A3E0FB121C7F900064121F24900068E084
:10141C00F8A3E0F9A3E0FAA3E0FB7F007E807DD483
:10142C007C44121B8A900064E0F8A3E0F9A3E0FA74
:10143C00A3E0FB121B8E121E4D8E0A8F0BD3E50BF5
:10144C0094DCE50A94055006750A06750B0E7508B2
:10145C0005750914AE0AAF0B7D147C050216879036
:10146C000068E0F8A3E0F9A3E0FAA3E0FB7F007EBC
:10147C00807DD47C44121B8AC004C005C006C00702
:10148C007FCD7ECC7D4C7C3F900064E0F8A3E0F9EE
:10149C00A3E0FAA3E0FB121C7FD003D002D001D052
:1014AC0000121B8E121E4D8E0A8F0BD3E50B94DC93
:1014BC00E50A94055006750A06750B0E7508057538
:1014CC000914AE0AAF0B7D147C0502168790000C34
:1014DC00E0FCA3E0FDA3E0FEA3E0FF900080121F60
:1014EC0024900008E0FCA3E0FDA3E0FEA3E0FF9045
:1014FC00007C121F24E5352460FDE53434FFFCE448
:10150C00121E14900080E0F8A3E0F9A3E0FAA3E027
:10151C00FB121C7F900068121F24C3E5379535FD24
:10152C00E5369534FCE4121E1490007CE0F8A3E040
:10153C00F9A3E0FAA3E0FB121C7F900064121F24B5
:10154C00C3E5379535FFE5369534FED3EF9400EEC1
:10155C009400406E900068E0F8A3E0F9A3E0FAA3D1
:10156C00E0FB7F007E807DA27C44121B8AC004C0FD
:10157C0005C006C0077F9A7E997D197C3F90006458
:10158C00E0F8A3E0F9A3E0FAA3E0FB121C7FD00380
:10159C00D002D001D000121B8E121E4D8E088F0966
:1015AC00C3E50994DCE50894054006750805750942
:1015BC00AA750A06750BA4AC08AD097FA47E0602B9
:1015CC001687C3E5379535E5369534C39400506CD2
:1015DC00900068E0F8A3E0F9A3E0FAA3E0FB7F0039
:1015EC007E807DD47C44121B8AC004C005C006C01A
:1015FC00077466FFFEFD7C3F900064E0F8A3E0F901
:10160C00A3E0FAA3E0FB121C7FD003D002D001D0E0
:10161C0000121B8E121E4D8E0A8F0BD3E50B94DC21
:10162C00E50A94055006750A06750B0E75080575C6
:10163C000914AE0AAF0B7D147C05803F900068E066
:10164C00F8A3E0F9A3E0FAA3E0FB7F007E807DD451
:10165C007C44121B8A121E4D8E0A8F0BD3E50B9401
:10166C00DCE50A94055006750A06750B0E7508051F
:0F167C00750914AE0AAF0B7D147C051227FF22EF
:101B8700021EB9E86480F8E933E83360110460F0B5
:101B9700ED33EC337009E8FCE9FDEAFEEBFF2204C4
:101BA70060DED3EB9FEA9EE99DE8C2E78CF0C2F7BF
:101BB70095F0400CE8CCF8E9CDF9EACEFAEBCFFB8B
:101BC700121E8485D0F05804700320D5B3E8047042
:101BD700075002B2D5021EC392D5EC0460F7E4CCDD
:101BE700C0E0C398F8603B94186008400DD0E0FB54
:101BF700021E9BE4FBFAC9FC8028E830E406E4C92E
:101C0700FBE4CAFCE830E305E4C9CACBFCE85407A7
:101C17006010F8C3E913F9EA13FAEB13FBEC13FCB2
:101C2700D8F130F52FC3E49CFCEF9BFFEE9AFEED55
:101C370099FDD0E0FBEF4E4D4C701222DB03021EE4
:101C4700C0EC2CFCEF33FFEE33FEED33FDED30E758
:101C5700EB021E9BEF2BFFEE3AFEED39FDD0E0FBCA
:101C670050130BBB0003021EC3ED13FDEE13FEEF73
:081C770013FFEC13FC021E9B9D
:101C7F00EC4D6011E8497017ED33EC3304600DE45F
:101C8F00FCFFFEFD22E933E8330470F8021EB9129F
:101C9F001E8458046009E4CC2481500628500902A0
:101CAF001EC3284003021EC0C0E0EB4A7044B98037
:101CBF0006D0E0FB021EAFEF4E701CBD8008EBFF9D
:101CCF00EAFEE9FD80EBE98DF0A4FEE5F0021D6868
:101CDF00E9CDF9EAFEEBFFEF89F0A4FCE5F0CE8940
:101CEF00F0A42EFFE435F0CD89F0A42DFEE435F0FD
:101CFF008067EF4E7005BD80D780C3EF8BF0A4AC2B
:101D0F00F0EE8BF0A42CFCE435F0F8EF8AF0A42C65
:101D1F00E5F038FCE433CB8DF0A42CFCE5F03BF878
:101D2F00EE8AF0A42CFCE5F038F8E433CF89F0A468
:101D3F002CFCE5F038CF3400CE89F0A42FFFE5F06E
:101D4F003EFEE433C98DF0A42EFEE5F039CD8AF0C6
:101D5F00A42FFFE5F03EFEE43DFD33D0E0FB50073E
:101D6F000BBB000F021EC3EC2CFCEF33FFEE33FE58
:061D7F00ED33FD021E9B86
:101D850074F8CC6480CCC86480C8F58204604FC305
:101D9500EB9FF5F0EA9E42F0E99D42F0E89C45F0A4
:101DA500603C501DE5825FFFE582D313CB5BCBF42E
:101DB5002B5582FB50280ABA002409B90020088057
:101DC5001DE5825BFBE582D313CF5FCFF4C3132FF1
:101DD5005582FF50090EBE00050DBD00010CC3EB79
:101DE5009FF5F0EA9E42F0E99D42F0E89C45F060DF
:091DF50007CC4820E701B3EC2201
:101DFE00ED33EC33600A047003BD8004ECB2E7FCF3
:011E0E0022B1
:101E0F0075F020800E75F010800575F0087D007E4E
:101E1F00007F003392D530D503121F16EC334010DC
:101E2F00EF33FFEE33FEED33FDEC33FCD5F0ED2257
:0E1E3F00E5F0247EA2D513CC92E7CDCEFF2293
:101E4D00EDD2E7CD33EC3392D524814006E4FFFE8D
:101E5D00FDFC22FCE4CFCECDCC24E0501174FF80EC
:101E6D00EDC3CC13CCCD13CDCE13CECF13CF047089
:071E7D00F030D5DE021F1654
:101E8400E9D2E7C933E833F892D5EDD2E7CD33ECA4
:071E940033FC5002B2D5221D
:101E9B00EC30E7100FBF000C0EBE00080DBD0004A8
:101EAB000BEB6014A2D5EB13FCED92E7FD2274FF54
:101EBB00FCFDFEFF22E480F8A2D574FF13FC7D80AD
:031ECB00E480EFC1
:03000000022625B0
:0C262500787FE4F6D8FD75817202266C07
:101ECE00EF8DF0A4A8F0CF8CF0A428CE8DF0A42E28
:021EDE00FE22E2
:101EE000C2D5EC30E709B2D5E4C39DFDE49CFCEE1D
:101EF00030E715B2D5E4C39FFFE49EFE121F61C315
:101F0000E49DFDE49CFC8003121F6130D507C3E40F
:061F10009FFFE49EFE228B
:0E1F1600C3E49FFFE49EFEE49DFDE49CFC22DC
:0C1F2400ECF0A3EDF0A3EEF0A3EFF02230
:101F3000A8828583F0D083D082121F47121F4712D8
:101F40001F47121F47E473E493A3C583C5F0C583FD
:101F5000C8C582C8F0A3C583C5F0C583C8C582C8FB
:011F6000225E
:1028F600AC6BAD6CAE6DAF6E7810EC4D4E4F700498
:102906007CA57DA5C3EC13FCED13FDEE13FEEF13C2
:10291600FF5010EC64CCFCED644CFDEE644EFEEF13
:1029260064CEFFD8DF8C6B8D6C8E6D8F6EEE547F10
:0D293600FE228E6B8F6C74A5F56DF56E2280
:1026310002168BE493A3F8E493A34003F68001F21E
:1026410008DFF48029E493A3F85407240CC8C333AA
:10265100C4540F4420C8834004F456800146F6DF79
:10266100E4800B01020408102040809022FAE47EED
:10267100019360BCA3FF543F30E509541FFEE4936E
:10268100A360010ECF54C025E060A840B8E493A335
:10269100FAE493A3F8E493A3C8C582C8CAC583CA60
:1026A100F0A3C8C582C8CAC583CADFE9DEE780BE18
:012455000086
:101F6100BC000BBE0029EF8DF084FFADF022E4CC64
:101F7100F875F008EF2FFFEE33FEEC33FCEE9DEC2D
:101F8100984005FCEE9DFE0FD5F0E9E4CEFD22ED73
:101F9100F8F5F0EE8420D21CFEADF075F008EF2FBD
:101FA100FFED33FD4007985006D5F0F222C398FDAE
:051FB1000FD5F0EA224B
:00000001FF
